:020000040800F2
:100000003805002001010008271D00083D120008E6
:10001000251D00086D010008491E000800000000B1
:100020000000000000000000000000002B1D000880
:100030008901000800000000291D00082D1D00088E
:100040001B0100081B0100081B0100081B01000820
:100050001B0100081B0100081B0100081B01000810
:100060001B0100081B0100081B0100081B01000800
:100070001B0100081B010008710100087D01000838
:100080001B0100081B0100081B0100081B010008E0
:100090001B0100081B0100081B0100081B010008D0
:1000A0001B0100081B0100081B0100081B010008C0
:1000B0001B0100081B0100081B0100084D1200086D
:1000C000411200081B0100081B0100081B01000869
:1000D0001B0100081B0100081B0100081B01000890
:1000E0001B0100081B0100081B010008DFF80CD0F1
:1000F00000F02AF800480047891E00083805002053
:100100000648804706480047FEE7FEE7FEE7FEE7B1
:10011000FEE7FEE7FEE7FEE7FEE7FEE78F1D0008CD
:10012000ED000008D2B201E000F8012B491EFBD21D
:1001300070470022F6E710B513460A4604461946F2
:10014000FFF7F0FF204610BD064C074D06E0E068C3
:1001500040F0010394E8070098471034AC42F6D30E
:10016000FFF7C8FFCC1E0008EC1E0008FEE70000E9
:10017000014800F05DB80000F0000020014800F0E8
:1001800057B80000AC000020704772B6FEE70000D0
:1001900010B590F821100024022903D004218163B6
:1001A00001243DE001680A6822F00E020A6001683D
:1001B0000A6822F001020A601A4A0168914201D1DC
:1001C000012121E0174A1432914201D110211BE094
:1001D000144A2832914201D1891515E0114A3C3266
:1001E000914201D189140FE00E4A5032914202D15E
:1001F0004FF4803108E00B4A6432914202D14FF44F
:10020000801101E04FF08071064A083A51600121E7
:1002100080F82110002180F82010416B01B188473F
:10022000204610BD0800024090F8210070470000F1
:100230002DE9F05FC16B0C6801680B68D0F840C015
:10024000042202FA0CF2494DDFF824A1494E4A4F2C
:10025000DFF828B1DFF828E122422CD05A072AD54E
:100260000A68920603D40A6822F004020A60016850
:10027000A94201D1042219E0514501D1402215E0E3
:10028000B14202D14FF4806210E0B94202D14FF482
:1002900080420BE0594502D14FF4802206E07145BF
:1002A00002D14FF4800201E04FF080622F490839FB
:1002B0004A60C16A3BE04FF0020808FA0CF818EAFD
:1002C000040F4FF000094FF0010235D05FEA837848
:1002D00032D50B689B0605D40B6823F00A030B602C
:1002E00080F821200168A94201D1022219E051457C
:1002F00001D1202215E0B14202D14FF4007210E08A
:10030000B94202D14FF400520BE0594502D14FF4EB
:10031000003206E0714502D14FF4001201E04FF0C7
:100320000072124908394A6080F82090816A0029D9
:100330001AD0BDE8F05F0847082505FA0CF52542FC
:1003400012D01B0710D50B6823F00E030B6090F83A
:100350004010C36B02FA01F15960826380F82120DA
:1003600080F82090016BE2E7BDE8F09F08000240B2
:100370001C0002403000024044000240580002408D
:100380006C00024030B528B308C813491422194440
:10039000B1FBF2F18900C163104981630221417709
:1003A0001A6843F6F0718A43D0E900142143D0E97A
:1003B00002452C4321430469214344692143846954
:1003C00021431143196000214163012242770177E3
:1003D000084630BD012030BDF8FFFDBF00000240DF
:1003E0002DE9F84FDFF8B8910024A9F1040B23465A
:1003F0000F2709F1040AABF1040EC9E00125A5405D
:100400002A40AA427DD1674ED1F804C0ACEB060861
:10041000B44532D014DCBCF1030F3AD009DCBCF196
:10042000000F2AD0BCF1010F1CD0BCF1020F31D15A
:100430001DE0BCF1110F17D0BCF1120F2AD119E049
:10044000B8F5881F19D006DCB8F5803F15D0B8F58F
:10045000801F1FD111E0B8F5001F0ED0B8F5041FA2
:1004600018D10AE0CB6815E0CB681B1D12E0CB6801
:1004700008330FE0CB680C330CE08B682BB1012BF9
:100480004FF0080303D0456104E0042302E0056156
:1004900000E00023FF2A01D8064601E000F104062F
:1004A0004FEA840501D9A5F12005D6F8008007FAA6
:1004B00005FC28EA0C0803FA05F548EA0508C6F821
:1004C00000804D68ED0062D5374DAE6946F00106FB
:1004D000AE61AD6924F0030605F001050095334DCA
:1004E00006EB050CDCF80850A607360F07FA06F8ED
:1004F00025EA0805DFF8B880404503D14FF0000831
:1005000017E044E0DFF8AC80404502D14FF001082D
:100510000FE0DFF8A480404502D14FF0020808E068
:10052000DFF89880404502D14FF0030801E04FF01A
:10053000040808FA06F848EA0508CCF808804D686F
:10054000D9F80060ED024D4601D5164300E0964310
:100550002E604D68DAF80060AD02554601D51643AD
:1005600000E096432E604D68DBF80060AD035D4609
:1005700001D5164300E096432E604D68DEF800601A
:10058000ED03754601D5164300E096432E60641CCA
:100590000D682A46E5407FF431AFBDE8F88F0000D2
:1005A000080401400000111000100240000001404A
:1005B00000080140000C01400010014000140140FF
:1005C00001488068704700000000002070477047B5
:1005D0002DE9F041016804464A694E6890F83E00F2
:1005E0000025D743FA050BD4F243D20508D46FF4A3
:1005F000807201254A6121680A6842F400420A605B
:10060000B90508D4F143C90505D422686FF4007117
:1006100045F002055161790525D4F143C90522D47D
:10062000638D94F83D10226B202808D13BB9212915
:1006300010D029290ED0282901D1212A0AD02268D8
:100640006FF48061516145F00405102806D0402800
:1006500004D008E0204601F0F7F904E020680168C2
:1006600041F400710160380508D4F043C00505D499
:1006700021686FF4006045F008054861002D07D03F
:10068000206C284320642046BDE8F04100F04ABEBB
:10069000BDE8F0812DE9F047026800215368C66A81
:1006A00090F83E4090F83D50102C12D0402C10D0C5
:1006B000046C002C7DD05469E443A6077AD4DE4351
:1006C000B60577D4036C03B19169BDE8F04701F03A
:1006D00097B9976951694FF42A0CC9435FEAC17809
:1006E0004FF02A4904D066452AD04E4528D010E064
:1006F000DE43B6050DD4C16A614501D1012103E095
:10070000C16A494501D10821C162BDE8F04701F045
:10071000DDB80E0716D4DE43B60513D4416CC9B25A
:100720001161416B09B1896A29B9816B002907D030
:10073000896A002904D00068416841F40061416081
:10074000BDE8F0878E0706D4DE43B60503D4BDE8C6
:10075000F04701F00FB8FE43526876074FEA0252A5
:100760001DD4002AECDB0A0608D4DA43520505D46E
:10077000490705D5BDE8F04700F0A0BF4907DFD421
:10078000D9438905DCD4212D05D0402CD8D1BDE832
:10079000F04701F0E1B8BDE8F04700F04DBF002A96
:1007A000CEDB4A060BD4DA43520508D4490708D5F4
:1007B00001E00DE00EE0BDE8F04700F0C9BE4907DA
:1007C000BED4D9438905BBD4BDE8F04700F056BE7E
:1007D000916970E7E10606D4D943890503D4BDE8E1
:1007E000F04701F079B92821212D27D0292D25D0D6
:1007F000650655D4DD436D0552D4640752D590F893
:100800003D30448D002C9BD01269446A2270426AAC
:10081000521C4262428D521E4285428D002A8FD167
:100820002A2B8DD10268536823F4806353602222FF
:10083000026380F83D1000F04FF981E7250623D4CC
:10084000DD436D0520D4640720D590F83D30448DFC
:10085000002CF2D0446A24781461426A521C42622D
:10086000428D521E4285428D002AE6D1292BE4D1C9
:100870000268536823F4806353602122026380F886
:100880003D1000F02AF95BE76107D6D4D94389050A
:10089000D3D4418D0029D0D0416A097811610AE092
:1008A0006107CAD4D9438905C7D4418D0029C4D072
:1008B0001169426A1170416A491C4162418D491EA9
:1008C00041853DE77047000070B5040025D094F8DD
:1008D0003D00002520B984F83C50204600F0BEF8C9
:1008E000242084F83D002068016821F001010160A6
:1008F0002068016841F4004101602068016821F42A
:100900000041016000F018FA4D4A6168914201D837
:100910004C4900E04C49884201D2012070BD4B494E
:100920002368B0FBF1F15E6826F03F060E435E607F
:100930006368934206D94FF4967359434FF47A7320
:10094000B1FBF3F12368491C1E6A26F03F063143D0
:1009500019626168914210D84900401EB0FBF1F263
:10096000521CC2F30B02042A01D2042022E0B0FB85
:10097000F1F0401CC0F30B001CE0A268F2B301EBE5
:10098000C10303EB0116431EB3FBF6F35B1C43F4F8
:1009900080431B0549D092B301EBC10202EB011168
:1009A000401EB0FBF1F0401CC0F30B0040F480404F
:1009B00040F400402168CA694CF6FF739A43104323
:1009C000C861D4E9071001432068026822F0C00220
:1009D00011430160D4E9030101432068826848F2B1
:1009E000FF339A4311438160D4E90501084321682C
:1009F000CA6822F0FF021043C86001E00EE016E072
:100A00002068016841F0010101602564202084F81C
:100A10003D00256384F83E50002070BD01EB410687
:100A2000431EB3FBF6F35B1CB3E70120C2E701EB07
:100A30004101401EB0FBF1F0401CC0F30B00B7E7D2
:100A4000A086010080841E0000093D0040420F0086
:100A500070477047704770477047000010B586B008
:100A60000021009101910291039100681749884289
:100A70002AD1174CA06940F00800A061A06969461E
:100A800000F008000490C020009012200190032084
:100A900003901048FFF7A4FCE06940F40010E06107
:100AA000E069002200F40010049011461F2000F0BD
:100AB0007BF81F2000F06AF800221146202000F089
:100AC00073F8202000F062F806B010BD005400401A
:100AD00000100240000C01407047704702488168D6
:100AE000027811448160704700000020074810B56B
:100AF000016841F010010160032000F075F800204A
:100B000000F006F800F024F8002010BD002002409C
:100B100070B50D4D04464FF47A712878B1FBF0F0B2
:100B20000A490968B1FBF0F000F0DCFA48B9102C72
:100B300007D200222146501E00F036F800206C60DB
:100B400070BD012070BD0000000000200C000020DE
:100B50000C4808B5816941F001018161816901F0AA
:100B600001010091C16941F08051C161C06900F08B
:100B7000805000900448416821F0E06141F000712C
:100B8000416008BD0010024000000140002809DB60
:100B900000F01F02012191404009800000F1E02097
:100BA000C0F8001170470000F0B40E4B1B680C46F3
:100BB000C3F30223C3F10705042D00D90425191D31
:100BC000072901D2002300E0DB1E012606FA05F109
:100BD000491E214099409E40761E16403143F0BC8C
:100BE00001F033B90CED00E0064900F00702086897
:100BF0004FF6FF03184040EA0220034A1043086002
:100C0000704700000CED00E00000FA052DE9F04708
:100C10000F46050061D0434E306800F00700B8422F
:100C200009D2306820F0070038433060306800F0A7
:100C30000700B84251D128683B4C810712D54007C4
:100C400003D5606840F4E06060602878000703D551
:100C5000606840F4605060606068A96820F0F0004F
:100C6000084360602878C00728D06868012810D041
:100C70002168022810D0890700292EDA616821F046
:100C8000030101436160FFF79BFC804641F2883914
:100C90000DE021688903EFE78901EDE7FFF790FC9C
:100CA000A0EB0801494502D90320BDE8F087606840
:100CB000696800F00C00B0EB810FEFD1306800F0F4
:100CC0000700B8420BD9306820F007003843306085
:100CD000306800F00700B84201D00120E5E728782D
:100CE000400705D56068E96820F4E060084360606B
:100CF0002878000706D56068296920F4605040EA2A
:100D0000C100606000F038F86168084AC1F303115F
:100D1000515CC8400649086006480068FFF7F8FEC5
:100D20000020C2E70020024000100240B41E00086C
:100D30000C000020040000200448054900684968B0
:100D4000044AC1F30221515CC84070470C000020E6
:100D500000100240C41E00080448054900684968A4
:100D6000044AC1F3C221515CC84070470C00002006
:100D700000100240C41E00080E4A51680E4801F0DF
:100D80000C03042B11D0082B0FD10C48C1F3834363
:100D9000C903C05C0AD55168084AC1F34041921E9C
:100DA000515C054A5043B0FBF1F070470449484399
:100DB000704700000010024000127A00A41E0008D4
:100DC00000093D002DE9F84F040070D02078C04D97
:100DD000C00749D06868C0F38100012807D068685F
:100DE000C0F38100022809D16868C00306D52868CD
:100DF000800339D560680028E7D035E06068B0F539
:100E0000803F0BD010B1B0F5A02F11D0286820F48E
:100E100080302860286820F4802002E0286840F4B0
:100E200080302860606890B1FFF7CAFB06460AE090
:100E3000286840F480202860F0E700BFFFF7C0FB7F
:100E4000801B642873D828688003F7D50CE0FFF76F
:100E5000B7FB064605E000BFFFF7B2FB801B642826
:100E6000F0D828688003F7D420789A4E80074FF096
:100E700001094FF0000839D5686810F00C0F07D051
:100E80006868C0F38100022809D16868C00306D4ED
:100E90002868800714D52069012808D110E020694E
:100EA000B0B1C6F80090FFF78BFB074605E00AE1FA
:100EB000FFF786FBC01B0228C4D828688007F7D537
:100EC0002868616920F0F80040EAC10028600DE060
:100ED000C6F80080FFF774FB074604E0FFF770FBDD
:100EE000C01B022823D828688007F7D42078000781
:100EF0002CD57948A169D9B1C0F80090FFF760FB03
:100F0000074604E0FFF75CFBC01B02280FD8686AA5
:100F10008007F7D571484FF4FA510068B0FBF1F043
:100F2000009000BF0098411E0091FAD20EE080E0D0
:100F3000C0F80080FFF744FB074604E0FFF740FBE2
:100F4000C01B022875D8686A8007F7D4207840074C
:100F500060D5E8690027C00008D4E86940F08050F7
:100F6000E861E869012700F0805000905C48016862
:100F7000C90513D40168834641F480710160FFF70D
:100F80001FFB824606E000BFFFF71AFBA0EB0A003A
:100F900064284ED8DBF80000C005F5D5E0680128CC
:100FA0000AD008B1052813D0286A20F00100286271
:100FB000286A20F0040002E0286A40F0010028625C
:100FC000E06841F2883B98B1FFF7FAFA82460BE0FD
:100FD000286A40F004002862EEE700BFFFF7F0FA4D
:100FE000A0EB0A0159455AD8286A8007F6D50CE0CB
:100FF000FFF7E6FA824605E0FFF7E2FAA0EB0A0106
:1010000059454CD8286A8007F6D41FB1E86920F00A
:101010008050E861E06988B36968C1F38101022901
:1010200044D00228C6F8608004D0FFF7C9FA04460D
:1010300038E034E0FFF7C4FA074604E0FFF7C0FAEF
:10104000C01B02282BD828688001F7D4206AB0F58D
:10105000803F05D16868A16820F4003008436860CB
:10106000D4E908010843696821F4741108436860F1
:10107000C6F86090FFF7A4FA044606E025E000BF3A
:10108000FFF79EFA001B022809D828688001F7D5CF
:101090001BE000BFFFF794FA001B022802D90320CF
:1010A000BDE8F88F28688001F4D40EE00128F7D05D
:1010B0006868226A00F48031914204D1616A00F4C8
:1010C0007010884201D00120EAE70020E8E7000024
:1010D0000010024000004242800442420C00002006
:1010E0000070004010B5401EB0F1807F01D3012098
:1010F00010BD4FF0E02460610F21601700F0A5FEE5
:101100000020A06107202061002010BD70B5040000
:1011100004D094F84100002510B106E0012070BD14
:1011200084F84050204600F023F8242084F8410041
:101130002068C16821F40051C160204600F028FEFB
:101140002068016921F4904101612068416921F022
:101150002A0141612068C16841F40051C1606564A1
:10116000202084F8410084F842006563002070BDAF
:10117000F0B585B0002406460094019402940394CF
:101180000068294988424CD12848816941F480414E
:101190008161816901F480410491816941F0040118
:1011A00081618069224D00F0040004904FF40070CA
:1011B0000090022001900320039069462846FFF723
:1011C0000FF92815CDE90004694628460294FFF777
:1011D00007F9194D17488027C5E90004C5E90247FA
:1011E0002C616C61AC612846EC61FFF7CBF808B16B
:1011F000FEF7CBFFF5636E620F4D0E484435143891
:1012000001C5102091C50C4845F8104944306C6167
:10121000AC61EC61FFF7B6F808B1FEF7B6FFB56355
:101220006E6205B0F0BD00000038014000100240C1
:101230000008014058000240AC000020FEE700001A
:101240000148FFF7C5B90000100000200148FFF772
:1012500021BA00001000002038B5406A002190F843
:101260003D202B4B46F2A8141B68B3FBF4F3C3EBF1
:10127000C30303EB830300933BB15B1E009303683E
:101280001B689B0505D5009BF6E7036C43F0200324
:101290000364436B03B19962836B03B19962036882
:1012A0001C6824F480641C604185436B03B159635E
:1012B000836B03B1596303681C6824F001041C604C
:1012C00090F83D402023602C0BD0282434EA020201
:1012D0000FD080F83D3080F83E1000BFFFF7F2FAE3
:1012E00038BD80F83D3080F83E100164FFF76EF99C
:1012F00038BD0268136843F0010313600268136885
:1013000043F480631360016380F83D40E6E700002A
:101310000C00002000684169C943090601D400217E
:101320000161704770B5044690F83D0094F83E1096
:10133000102901D0402906D1222804D121680A6849
:1013400022F400620A60282131EA00024FF0000511
:101350004FF0200626D021684968090505D4602889
:1013600003D084F83D6084F83E50256320684168CE
:10137000090537D5416821F400614160606B90F840
:1013800021203C49012A11D04163606BFEF700FF28
:1013900038B32068016821F00101016084F83D60E4
:1013A000606B1CE0256384F83D10DFE7A06B4163B0
:1013B000A06BFEF7EDFEA0B120684169C943490664
:1013C00005D40069616A0870606A401C6062206828
:1013D000016821F00101016084F83D60A06B416B60
:1013E000884710E094F83D10602910D04169C94346
:1013F000490605D40069616A0870606A401C606231
:101400002046FFF75FFA206CC1071CD115E084F875
:101410003D6025644169C943490605D40069616A94
:101420000870606A401C60622068016821F0010158
:1014300001602046FFF7CAF8E5E7810703D44107BA
:1014400001D4000704D52068416821F4E0614160BF
:1014500094F83D00216C49070BD5282809D106488E
:10146000E062256384F83D6084F83E502046FFF733
:10147000EFFA70BD591200080000FFFF10B5C26AF4
:10148000438D0168042B06D0438D032B08D0438D78
:10149000022B1DD012E04A6822F480624A600CE000
:1014A0004B6823F480634B60042A06D0022A04D0E0
:1014B00001680A6822F480620A6001680969426A68
:1014C0001170416A491C4162418D491E418510BD20
:1014D000012A30D0102A2ED0042A30D0022A2ED051
:1014E0000A6842F400720A6001680969426A117070
:1014F000416A491C4162428D521E4285026812694E
:101500000A70416A491C4162418D491E418501684A
:101510004A6822F440724A60202180F83D1090F819
:101520003E200021402A80F83E100CD01221016399
:10153000FFF78FFA10BD0A6822F48062D3E70A68C9
:1015400042F48062CFE70163FFF785FA10BD000027
:1015500038B590F83D1022290FD1418D03290DD9BE
:1015600001680969426A1170416A491C4162418DF2
:10157000491E4185418D032906D038BDC26A022A21
:1015800002D0012906D029B10068416821F48061A8
:10159000416038BD274946F2A81300220968B1FB13
:1015A000F3F101EB8101009101682023009C641E8E
:1015B000009422D00C68A405F8D40C6824F480644C
:1015C0000C6001684C6824F4E0644C6001680969AF
:1015D000446A2170416A491C4162418D491E41851E
:1015E00080F83D3090F83E1080F83E2040291DD014
:1015F00012210163FFF72DFA38BD046C44F020047A
:1016000004644C6824F4E0644C6001680969446A2D
:101610002170416A491C4162418D491E418580F813
:101620003D3080F83E20FFF74DF938BD0263FFF7EB
:1016300012FA38BD0C00002010B5C26A90F83D10B7
:1016400021290BD1418D51B1416A0268097811619C
:10165000416A491C4162418D491E418510BD2023CC
:101660000021082A13D0202A11D012F5803F0ED075
:101670000268546824F4E06454601122026380F824
:101680003E1080F83D3000BFFFF7E4F910BD02685E
:10169000546824F4E06454600268146844F40074EC
:1016A0001460016380F83D3090F83E2080F83E10D1
:1016B000402AE9D1FFF7D0F910BD000010B590F82D
:1016C0003D1090F83E30C26A048DB4B1212903D098
:1016D000402B11D122290FD1418DE1B390F83E105A
:1016E000402942D0416A026809781161416A491C67
:1016F0004162418D491E418510BD2129E8D1202339
:101700000021082A13D0202A11D012F5803F0ED0D4
:101710000268546824F4E06454601122026380F883
:101720003E1080F83D3000BFFFF794F910BD02680D
:10173000546824F4E06454600268146844F400744B
:101740001460016380F83D3090F83E2080F83E1030
:10175000402AE9D100E002E0FFF77EF910BD006801
:10176000416821F48061416010BDBDE8104000F087
:10177000F3B8000078B590F83E50C26A046B90F858
:101780003D6000230168222E73D1066D0EB9402DF5
:101790006FD0056D1DB90569B5F5404F1BD0458D5E
:1017A00095B3468D484D012E20D0448D022C4DD04E
:1017B0000C6844F480640C6001684C68240579D599
:1017C000AA4273D0012A71D0082A6FD0102A6DD096
:1017D000202A6BD06EE04A698A6900920A6842F456
:1017E00080720A60016D491C016578BDAA4214D15E
:1017F0000A6822F480620A6001684A68120504D50A
:101800000A6822F4806217E0FFE74A698A69009259
:101810000A6842F400720A6050E0082A10D0202AB8
:101820000ED0122C0AD0042A03D0022A01D0102A8A
:10183000E6D10A6842F480620A603BE0012ADFD008
:101840000A6822F480620A600168DEE7042A11D087
:10185000022A0FD0102A0DD00C6844F400640C60EA
:1018600001684C698C6900940C6824F480640C60F5
:1018700008E025E00C6844F480640C6001684C6961
:101880008969009101684C68240517D5AA4207D0E0
:10189000012A05D0082A03D0102A01D0202A0DD110
:1018A0004A6842F480524A6008E0FFE74A6842F41E
:1018B00080524A6001684A6989690091036578BD70
:1018C00048698869009078BD0000FFFF90F83E10DD
:1018D000402910D00169B1F5804F19D0016DA9B32D
:1018E000016D012910D1416C5FF0F10201F44071EA
:1018F00042EAD11106E0016D0029416C05D0C9B260
:1019000041F0010100680161704701F0FE01F9E753
:1019100090F83D102129416C09D0C9B241F0010174
:1019200002681161416B29B1896A49B902E001F08D
:10193000FE01F5E7816B0029E6D0896A0029E3D032
:101940000068416841F4006141607047FFE7416C05
:10195000F02201F44071CBE710B590F83D10026D14
:101960004AB1026D012A14D0026D022A16D0BDE8D8
:101970001040FFF7CFBCC16C0129816C02D0C1F3CC
:10198000072108E00268C9B21161016D891C016577
:1019900010BD816CC9B20268116123E022291CD0FC
:1019A000428D0AB1212920D0428D002AF0D121296F
:1019B000EED101684A6822F4E0624A6001680A6870
:1019C00042F400720A6000210163202280F83D2069
:1019D00080F83E10FFF740F810BD01680A6842F435
:1019E00080720A60016D491CD1E7416A026809787A
:1019F0001161416A491C4162418D491E418510BDFA
:101A000038B50C4690F83D20002128259543026802
:101A10000B4605D051699169009180F83C3038BD82
:101A2000556825F480655560E243540700D50121CF
:101A3000120601D5828900E0028B80F83C3092B218
:101A4000FEF7C5FD38BD00002DE9F04190F83D30AE
:101A50000446C26A002120261E4F00686FF480658C
:101A6000082A01D0202A01D1282B04D0212B17D0FD
:101A70004561BDE8F081E762426822F4E0624260BD
:101A8000206845612068026822F480620260216358
:101A900084F83D6084F83E102046FEF7D9FFE8E761
:101AA000E7622122226384F83D6084F83E10416899
:101AB00021F4E0614160206845612068016821F4FB
:101AC000806101602046FFF725FC2046FFF705F8FE
:101AD000CFE700000000FFFFF8B590F83D60044636
:101AE0000068416821F4E061416020680025416997
:101AF0000091016841F0010101602068016821F452
:101B00008061016020684168090520D5474F222E79
:101B100048D02A2E46D0616B096849686185618D7D
:101B200019B1216C41F004012164416821F4006184
:101B30004160606BFEF778FB012808D0606B47635B
:101B4000606BFEF725FB10B1606B416B8847608DC1
:101B500008B320684169C943490708D40069616A2C
:101B60000870606A401C6062608D401E608520685D
:101B70004169C943490608D40069616A0870606A0E
:101B8000401C6062608D401E6085608D18B1206CC5
:101B900040F004002064206C00B32046BDE8F8400B
:101BA000FFF7C0BBA16B096849686185618D19B1F8
:101BB000216C41F004012164416821F4006141601D
:101BC000A06BFEF731FB0128C1D0A06B4763A06B6F
:101BD000FEF7DEFA0028BAD0A06BB6E72A2E06D1AF
:101BE0002563282084F83D002046FEF775FF94F811
:101BF0003D10202028290DD0216B222901D0222E32
:101C000007D1256384F83D0084F83E502046FEF756
:101C100063FFF8BD0649E162256384F83D0084F85E
:101C20003E502046FEF714FFF8BD00005912000890
:101C30000000FFFF0D4808B5416941F00101416115
:101C40004069002200F00100009011460E20FEF7CE
:101C5000ABFF0E20FEF79AFF002211460F20FEF781
:101C6000A3FFBDE808400F20FEF790BF0010024020
:101C70000D4808B5816941F020018161816901F059
:101C800020010091816941F004018161816901F0C5
:101C900004010091816941F008018161806900F0CF
:101CA0000800009008BD0000001002400D4810B56B
:101CB0000B4901600C49416000214FF48042816072
:101CC000C0E9031241618161C1610162FEF7FCFD5F
:101CD000002803D0BDE81040FEF757BA10BD000041
:101CE0000054004010000020A08601000C4810B5F0
:101CF0000A4901604FF4E1314160002181600C220A
:101D0000C160C0E904128161C161FFF7FFF90028D9
:101D100003D0BDE81040FEF738BA10BD00380140CE
:101D200064000020FEE7FEE770477047FEF7D6BE6E
:101D300030B58FB028216846FEF7FBF914210AA8B8
:101D4000FEF7F7F901210804CDE900100024029400
:101D500002250491CDE907504FF4E0100990684640
:101D6000FFF730F808B172B6FEE70F20CDE90A059B
:101D70004FF48060CDE90C4002210AA80E94FEF7D2
:101D800045FF002801D072B6FEE70FB030BD7047A6
:101D900070B5044600680169E26821F440511143BE
:101DA00001612169A0680843616908432168CA6824
:101DB00041F20C639A430243CA6020684169A269F8
:101DC00021F44071114341611E492068884202D1CB
:101DD000FEF7C2FF01E0FEF7AFFF00EBC00101EB31
:101DE0000012606864218000B2FBF0F3B3FBF1F3F2
:101DF0006FF018067343B2FBF0F5B2FBF0F605EB9B
:101E00008305322303EB0515B5FBF1F5B6FBF1F6BF
:101E100005F0F00505EB0615B2FBF0F6B2FBF0F0AD
:101E2000B0FBF1F06FF01802504306EB800003EBBB
:101E30000010B0FBF1F0216800F00F00284488602A
:101E400070BD000000380140FEE70907090E0028B8
:101E500004DB00F1E02080F80014704700F00F0070
:101E600000F1E02080F8141D704702E008C8121F3E
:101E700008C1002AFAD170477047002001E001C173
:101E8000121F002AFBD17047FEF730FEFFF750FF0C
:101E9000FFF7EEFEFFF7CEFEFFF708FFFFF726FF86
:101EA000FEE7010202030405060708090A0B0C0DF0
:101EB0000E0F1010000000000000000001020304DB
:101EC000060708090000000001020304EC1E0008D8
:101ED00000000020100000006A1E0008FC1E000820
:101EE00010000020280500007A1E000801000000F4
:0C1EF00010000000000000000024F400BE
:04000005080000ED02
:00000001FF
